{
  "contractName": "BoardGameShop",
  "abi": [
    {
      "inputs": [
        {
          "internalType": "uint256",
          "name": "",
          "type": "uint256"
        }
      ],
      "name": "gameToOwner",
      "outputs": [
        {
          "internalType": "address",
          "name": "",
          "type": "address"
        }
      ],
      "stateMutability": "view",
      "type": "function",
      "constant": true
    },
    {
      "inputs": [
        {
          "internalType": "uint256",
          "name": "",
          "type": "uint256"
        }
      ],
      "name": "games",
      "outputs": [
        {
          "internalType": "string",
          "name": "title",
          "type": "string"
        },
        {
          "internalType": "string",
          "name": "description",
          "type": "string"
        },
        {
          "internalType": "uint256",
          "name": "price",
          "type": "uint256"
        },
        {
          "internalType": "address",
          "name": "owner",
          "type": "address"
        },
        {
          "internalType": "bool",
          "name": "isForSale",
          "type": "bool"
        }
      ],
      "stateMutability": "view",
      "type": "function",
      "constant": true
    },
    {
      "inputs": [
        {
          "internalType": "string",
          "name": "_title",
          "type": "string"
        },
        {
          "internalType": "string",
          "name": "_description",
          "type": "string"
        },
        {
          "internalType": "uint256",
          "name": "_price",
          "type": "uint256"
        }
      ],
      "name": "addGame",
      "outputs": [],
      "stateMutability": "nonpayable",
      "type": "function"
    },
    {
      "inputs": [
        {
          "internalType": "uint256",
          "name": "_gameId",
          "type": "uint256"
        }
      ],
      "name": "getGame",
      "outputs": [
        {
          "internalType": "string",
          "name": "",
          "type": "string"
        },
        {
          "internalType": "string",
          "name": "",
          "type": "string"
        },
        {
          "internalType": "uint256",
          "name": "",
          "type": "uint256"
        },
        {
          "internalType": "address",
          "name": "",
          "type": "address"
        },
        {
          "internalType": "bool",
          "name": "",
          "type": "bool"
        }
      ],
      "stateMutability": "view",
      "type": "function",
      "constant": true
    },
    {
      "inputs": [
        {
          "internalType": "uint256",
          "name": "_gameId",
          "type": "uint256"
        }
      ],
      "name": "buyGame",
      "outputs": [],
      "stateMutability": "payable",
      "type": "function",
      "payable": true
    },
    {
      "inputs": [
        {
          "internalType": "uint256",
          "name": "_gameId",
          "type": "uint256"
        },
        {
          "internalType": "string",
          "name": "_title",
          "type": "string"
        },
        {
          "internalType": "string",
          "name": "_description",
          "type": "string"
        },
        {
          "internalType": "uint256",
          "name": "_price",
          "type": "uint256"
        },
        {
          "internalType": "bool",
          "name": "_isForSale",
          "type": "bool"
        }
      ],
      "name": "updateGame",
      "outputs": [],
      "stateMutability": "nonpayable",
      "type": "function"
    },
    {
      "inputs": [
        {
          "internalType": "uint256",
          "name": "_gameId",
          "type": "uint256"
        }
      ],
      "name": "removeGame",
      "outputs": [],
      "stateMutability": "nonpayable",
      "type": "function"
    },
    {
      "inputs": [],
      "name": "totalGames",
      "outputs": [
        {
          "internalType": "uint256",
          "name": "",
          "type": "uint256"
        }
      ],
      "stateMutability": "view",
      "type": "function",
      "constant": true
    }
  ],
  "bytecode": "0x608060405234801561001057600080fd5b506115a3806100206000396000f3fe60806040526004361061007b5760003560e01c8063873c39a51161004e578063873c39a514610152578063a2f77bcc1461017b578063a5c86b77146101bc578063f7760517146101e55761007b565b8063117a5b90146100805780632c4e591b146100c157806338696766146100ec57806373d3124014610129575b600080fd5b34801561008c57600080fd5b506100a760048036038101906100a29190610f28565b610201565b6040516100b89594939291906111c5565b60405180910390f35b3480156100cd57600080fd5b506100d6610384565b6040516100e391906112a6565b60405180910390f35b3480156100f857600080fd5b50610113600480360381019061010e9190610f28565b610390565b60405161012091906111aa565b60405180910390f35b34801561013557600080fd5b50610150600480360381019061014b9190610f28565b6103c3565b005b34801561015e57600080fd5b5061017960048036038101906101749190610f51565b6105a7565b005b34801561018757600080fd5b506101a2600480360381019061019d9190610f28565b6106e3565b6040516101b39594939291906111c5565b60405180910390f35b3480156101c857600080fd5b506101e360048036038101906101de9190610ea9565b6108a6565b005b6101ff60048036038101906101fa9190610f28565b610a81565b005b6000818154811061021157600080fd5b906000526020600020906004020160009150905080600001805461023490611426565b80601f016020809104026020016040519081016040528092919081815260200182805461026090611426565b80156102ad5780601f10610282576101008083540402835291602001916102ad565b820191906000526020600020905b81548152906001019060200180831161029057829003601f168201915b5050505050908060010180546102c290611426565b80601f01602080910402602001604051908101604052809291908181526020018280546102ee90611426565b801561033b5780601f106103105761010080835404028352916020019161033b565b820191906000526020600020905b81548152906001019060200180831161031e57829003601f168201915b5050505050908060020154908060030160009054906101000a900473ffffffffffffffffffffffffffffffffffffffff16908060030160149054906101000a900460ff16905085565b60008080549050905090565b60016020528060005260406000206000915054906101000a900473ffffffffffffffffffffffffffffffffffffffff1681565b60008082815481106103fe577f4e487b7100000000000000000000000000000000000000000000000000000000600052603260045260246000fd5b906000526020600020906004020190508060030160009054906101000a900473ffffffffffffffffffffffffffffffffffffffff1673ffffffffffffffffffffffffffffffffffffffff163373ffffffffffffffffffffffffffffffffffffffff16146104a0576040517f08c379a000000000000000000000000000000000000000000000000000000000815260040161049790611226565b60405180910390fd5b600082815481106104da577f4e487b7100000000000000000000000000000000000000000000000000000000600052603260045260246000fd5b9060005260206000209060040201600080820160006104f99190610d34565b6001820160006105099190610d34565b60028201600090556003820160006101000a81549073ffffffffffffffffffffffffffffffffffffffff02191690556003820160146101000a81549060ff02191690555050600260003373ffffffffffffffffffffffffffffffffffffffff1673ffffffffffffffffffffffffffffffffffffffff168152602001908152602001600020600081548092919061059e906113fc565b91905055505050565b60008086815481106105e2577f4e487b7100000000000000000000000000000000000000000000000000000000600052603260045260246000fd5b906000526020600020906004020190508060030160009054906101000a900473ffffffffffffffffffffffffffffffffffffffff1673ffffffffffffffffffffffffffffffffffffffff163373ffffffffffffffffffffffffffffffffffffffff1614610684576040517f08c379a000000000000000000000000000000000000000000000000000000000815260040161067b90611266565b60405180910390fd5b8481600001908051906020019061069c929190610d74565b50838160010190805190602001906106b5929190610d74565b50828160020181905550818160030160146101000a81548160ff021916908315150217905550505050505050565b60608060008060008060008781548110610726577f4e487b7100000000000000000000000000000000000000000000000000000000600052603260045260246000fd5b90600052602060002090600402019050806000018160010182600201548360030160009054906101000a900473ffffffffffffffffffffffffffffffffffffffff168460030160149054906101000a900460ff1684805461078690611426565b80601f01602080910402602001604051908101604052809291908181526020018280546107b290611426565b80156107ff5780601f106107d4576101008083540402835291602001916107ff565b820191906000526020600020905b8154815290600101906020018083116107e257829003601f168201915b5050505050945083805461081290611426565b80601f016020809104026020016040519081016040528092919081815260200182805461083e90611426565b801561088b5780601f106108605761010080835404028352916020019161088b565b820191906000526020600020905b81548152906001019060200180831161086e57829003601f168201915b50505050509350955095509550955095505091939590929450565b60006040518060a001604052808581526020018481526020018381526020013373ffffffffffffffffffffffffffffffffffffffff168152602001600115158152509080600181540180825580915050600190039060005260206000209060040201600090919091909150600082015181600001908051906020019061092d929190610d74565b50602082015181600101908051906020019061094a929190610d74565b506040820151816002015560608201518160030160006101000a81548173ffffffffffffffffffffffffffffffffffffffff021916908373ffffffffffffffffffffffffffffffffffffffff16021790555060808201518160030160146101000a81548160ff0219169083151502179055505050600060016000805490506109d2919061133e565b9050336001600083815260200190815260200160002060006101000a81548173ffffffffffffffffffffffffffffffffffffffff021916908373ffffffffffffffffffffffffffffffffffffffff160217905550600260003373ffffffffffffffffffffffffffffffffffffffff1673ffffffffffffffffffffffffffffffffffffffff1681526020019081526020016000206000815480929190610a7690611458565b919050555050505050565b6000808281548110610abc577f4e487b7100000000000000000000000000000000000000000000000000000000600052603260045260246000fd5b906000526020600020906004020190508060030160149054906101000a900460ff16610b1d576040517f08c379a0000000000000000000000000000000000000000000000000000000008152600401610b1490611286565b60405180910390fd5b80600201543414610b63576040517f08c379a0000000000000000000000000000000000000000000000000000000008152600401610b5a90611246565b60405180910390fd5b60008160030160009054906101000a900473ffffffffffffffffffffffffffffffffffffffff169050338260030160006101000a81548173ffffffffffffffffffffffffffffffffffffffff021916908373ffffffffffffffffffffffffffffffffffffffff16021790555060008260030160146101000a81548160ff021916908315150217905550600260008273ffffffffffffffffffffffffffffffffffffffff1673ffffffffffffffffffffffffffffffffffffffff1681526020019081526020016000206000815480929190610c3c906113fc565b9190505550600260003373ffffffffffffffffffffffffffffffffffffffff1673ffffffffffffffffffffffffffffffffffffffff1681526020019081526020016000206000815480929190610c9190611458565b9190505550336001600085815260200190815260200160002060006101000a81548173ffffffffffffffffffffffffffffffffffffffff021916908373ffffffffffffffffffffffffffffffffffffffff1602179055508073ffffffffffffffffffffffffffffffffffffffff166108fc349081150290604051600060405180830381858888f19350505050158015610d2e573d6000803e3d6000fd5b50505050565b508054610d4090611426565b6000825580601f10610d525750610d71565b601f016020900490600052602060002090810190610d709190610dfa565b5b50565b828054610d8090611426565b90600052602060002090601f016020900481019282610da25760008555610de9565b82601f10610dbb57805160ff1916838001178555610de9565b82800160010185558215610de9579182015b82811115610de8578251825591602001919060010190610dcd565b5b509050610df69190610dfa565b5090565b5b80821115610e13576000816000905550600101610dfb565b5090565b6000610e2a610e25846112f2565b6112c1565b905082815260208101848484011115610e4257600080fd5b610e4d8482856113ba565b509392505050565b600081359050610e648161153f565b92915050565b600082601f830112610e7b57600080fd5b8135610e8b848260208601610e17565b91505092915050565b600081359050610ea381611556565b92915050565b600080600060608486031215610ebe57600080fd5b600084013567ffffffffffffffff811115610ed857600080fd5b610ee486828701610e6a565b935050602084013567ffffffffffffffff811115610f0157600080fd5b610f0d86828701610e6a565b9250506040610f1e86828701610e94565b9150509250925092565b600060208284031215610f3a57600080fd5b6000610f4884828501610e94565b91505092915050565b600080600080600060a08688031215610f6957600080fd5b6000610f7788828901610e94565b955050602086013567ffffffffffffffff811115610f9457600080fd5b610fa088828901610e6a565b945050604086013567ffffffffffffffff811115610fbd57600080fd5b610fc988828901610e6a565b9350506060610fda88828901610e94565b9250506080610feb88828901610e55565b9150509295509295909350565b61100181611372565b82525050565b61101081611384565b82525050565b600061102182611322565b61102b818561132d565b935061103b8185602086016113c9565b6110448161152e565b840191505092915050565b600061105c60228361132d565b91507f4f6e6c7920746865206f776e65722063616e2072656d6f76652074686520676160008301527f6d650000000000000000000000000000000000000000000000000000000000006020830152604082019050919050565b60006110c2600f8361132d565b91507f496e636f72726563742076616c756500000000000000000000000000000000006000830152602082019050919050565b600061110260228361132d565b91507f4f6e6c7920746865206f776e65722063616e207570646174652074686520676160008301527f6d650000000000000000000000000000000000000000000000000000000000006020830152604082019050919050565b600061116860148361132d565b91507f47616d65206973206e6f7420666f722073616c650000000000000000000000006000830152602082019050919050565b6111a4816113b0565b82525050565b60006020820190506111bf6000830184610ff8565b92915050565b600060a08201905081810360008301526111df8188611016565b905081810360208301526111f38187611016565b9050611202604083018661119b565b61120f6060830185610ff8565b61121c6080830184611007565b9695505050505050565b6000602082019050818103600083015261123f8161104f565b9050919050565b6000602082019050818103600083015261125f816110b5565b9050919050565b6000602082019050818103600083015261127f816110f5565b9050919050565b6000602082019050818103600083015261129f8161115b565b9050919050565b60006020820190506112bb600083018461119b565b92915050565b6000604051905081810181811067ffffffffffffffff821117156112e8576112e76114ff565b5b8060405250919050565b600067ffffffffffffffff82111561130d5761130c6114ff565b5b601f19601f8301169050602081019050919050565b600081519050919050565b600082825260208201905092915050565b6000611349826113b0565b9150611354836113b0565b925082821015611367576113666114a1565b5b828203905092915050565b600061137d82611390565b9050919050565b60008115159050919050565b600073ffffffffffffffffffffffffffffffffffffffff82169050919050565b6000819050919050565b82818337600083830152505050565b60005b838110156113e75780820151818401526020810190506113cc565b838111156113f6576000848401525b50505050565b6000611407826113b0565b9150600082141561141b5761141a6114a1565b5b600182039050919050565b6000600282049050600182168061143e57607f821691505b60208210811415611452576114516114d0565b5b50919050565b6000611463826113b0565b91507fffffffffffffffffffffffffffffffffffffffffffffffffffffffffffffffff821415611496576114956114a1565b5b600182019050919050565b7f4e487b7100000000000000000000000000000000000000000000000000000000600052601160045260246000fd5b7f4e487b7100000000000000000000000000000000000000000000000000000000600052602260045260246000fd5b7f4e487b7100000000000000000000000000000000000000000000000000000000600052604160045260246000fd5b6000601f19601f8301169050919050565b61154881611384565b811461155357600080fd5b50565b61155f816113b0565b811461156a57600080fd5b5056fea2646970667358221220e303908f0df594ae596dd5ba0600e05ddca2abea18a29121f74ababb39ab9f1864736f6c63430008000033",
  "immutableReferences": {},
  "source": "// SPDX-License-Identifier: MIT\r\npragma solidity ^0.8.0;\r\n\r\ncontract BoardGameShop {\r\n    struct Game {\r\n        string title;\r\n        string description;\r\n        uint price;\r\n        address owner;\r\n        bool isForSale;\r\n    }\r\n\r\n    Game[] public games;\r\n    mapping(uint => address) public gameToOwner;\r\n    mapping(address => uint) ownerGameCount;\r\n\r\n    function addGame(string memory _title, string memory _description, uint _price) public {\r\n        games.push(Game(_title, _description, _price, msg.sender, true));\r\n        uint gameId = games.length - 1;\r\n        gameToOwner[gameId] = msg.sender;\r\n        ownerGameCount[msg.sender]++;\r\n    }\r\n\r\n    function getGame(uint _gameId) public view returns (string memory, string memory, uint, address, bool) {\r\n        Game storage game = games[_gameId];\r\n        return (game.title, game.description, game.price, game.owner, game.isForSale);\r\n    }\r\n\r\n    function buyGame(uint _gameId) public payable {\r\n        Game storage game = games[_gameId];\r\n        require(game.isForSale, \"Game is not for sale\");\r\n        require(msg.value == game.price, \"Incorrect value\");\r\n\r\n        address seller = game.owner;\r\n        game.owner = msg.sender;\r\n        game.isForSale = false;\r\n        ownerGameCount[seller]--;\r\n        ownerGameCount[msg.sender]++;\r\n        gameToOwner[_gameId] = msg.sender;\r\n\r\n        payable(seller).transfer(msg.value);\r\n    }\r\n\r\n    function updateGame(uint _gameId, string memory _title, string memory _description, uint _price, bool _isForSale) public {\r\n    Game storage game = games[_gameId];\r\n    require(msg.sender == game.owner, \"Only the owner can update the game\");\r\n\r\n    game.title = _title;\r\n    game.description = _description;\r\n    game.price = _price;\r\n    game.isForSale = _isForSale;\r\n}\r\n\r\nfunction removeGame(uint _gameId) public {\r\n    Game storage game = games[_gameId];\r\n    require(msg.sender == game.owner, \"Only the owner can remove the game\");\r\n\r\n    // Delete game from storage\r\n    delete games[_gameId];\r\n    ownerGameCount[msg.sender]--;\r\n    // Note: You might want to handle rearranging the `games` array or maintaining an active games list\r\n}\r\n\r\n    function totalGames() public view returns (uint) {\r\n    return games.length;\r\n}\r\n}",
  "sourcePath": "C:\\Work\\flasksmartcontract\\contracts\\BoardGameShop.sol",
  "compiler": {
    "name": "solc",
    "version": "0.8.0+commit.c7dfd78e.Emscripten.clang"
  },
  "schemaVersion": "3.4.16",
  "updatedAt": "2024-06-26T08:50:25.926Z",
  "networkType": "ethereum",
  "devdoc": {
    "kind": "dev",
    "methods": {},
    "version": 1
  },
  "userdoc": {
    "kind": "user",
    "methods": {},
    "version": 1
  }
}