{
  "contractName": "BoardGameShop",
  "abi": [
    {
      "anonymous": false,
      "inputs": [
        {
          "indexed": false,
          "internalType": "uint256",
          "name": "gameId",
          "type": "uint256"
        },
        {
          "indexed": false,
          "internalType": "address",
          "name": "buyer",
          "type": "address"
        }
      ],
      "name": "GameBought",
      "type": "event"
    },
    {
      "inputs": [
        {
          "internalType": "uint256",
          "name": "",
          "type": "uint256"
        }
      ],
      "name": "gameToOwner",
      "outputs": [
        {
          "internalType": "address",
          "name": "",
          "type": "address"
        }
      ],
      "stateMutability": "view",
      "type": "function",
      "constant": true
    },
    {
      "inputs": [
        {
          "internalType": "uint256",
          "name": "",
          "type": "uint256"
        }
      ],
      "name": "games",
      "outputs": [
        {
          "internalType": "string",
          "name": "title",
          "type": "string"
        },
        {
          "internalType": "string",
          "name": "description",
          "type": "string"
        },
        {
          "internalType": "uint256",
          "name": "price",
          "type": "uint256"
        },
        {
          "internalType": "address",
          "name": "owner",
          "type": "address"
        },
        {
          "internalType": "bool",
          "name": "isForSale",
          "type": "bool"
        }
      ],
      "stateMutability": "view",
      "type": "function",
      "constant": true
    },
    {
      "inputs": [
        {
          "internalType": "string",
          "name": "_title",
          "type": "string"
        },
        {
          "internalType": "string",
          "name": "_description",
          "type": "string"
        },
        {
          "internalType": "uint256",
          "name": "_price",
          "type": "uint256"
        }
      ],
      "name": "addGame",
      "outputs": [],
      "stateMutability": "nonpayable",
      "type": "function"
    },
    {
      "inputs": [
        {
          "internalType": "uint256",
          "name": "_gameId",
          "type": "uint256"
        }
      ],
      "name": "getGame",
      "outputs": [
        {
          "internalType": "string",
          "name": "",
          "type": "string"
        },
        {
          "internalType": "string",
          "name": "",
          "type": "string"
        },
        {
          "internalType": "uint256",
          "name": "",
          "type": "uint256"
        },
        {
          "internalType": "address",
          "name": "",
          "type": "address"
        },
        {
          "internalType": "bool",
          "name": "",
          "type": "bool"
        }
      ],
      "stateMutability": "view",
      "type": "function",
      "constant": true
    },
    {
      "inputs": [
        {
          "internalType": "string",
          "name": "_title",
          "type": "string"
        }
      ],
      "name": "getGameByName",
      "outputs": [
        {
          "components": [
            {
              "internalType": "string",
              "name": "title",
              "type": "string"
            },
            {
              "internalType": "string",
              "name": "description",
              "type": "string"
            },
            {
              "internalType": "uint256",
              "name": "price",
              "type": "uint256"
            },
            {
              "internalType": "address",
              "name": "owner",
              "type": "address"
            },
            {
              "internalType": "bool",
              "name": "isForSale",
              "type": "bool"
            }
          ],
          "internalType": "struct BoardGameShop.Game",
          "name": "",
          "type": "tuple"
        }
      ],
      "stateMutability": "view",
      "type": "function",
      "constant": true
    },
    {
      "inputs": [
        {
          "internalType": "string",
          "name": "_title",
          "type": "string"
        }
      ],
      "name": "buyGame",
      "outputs": [],
      "stateMutability": "payable",
      "type": "function",
      "payable": true
    },
    {
      "inputs": [
        {
          "internalType": "uint256",
          "name": "_gameId",
          "type": "uint256"
        },
        {
          "internalType": "string",
          "name": "_title",
          "type": "string"
        },
        {
          "internalType": "string",
          "name": "_description",
          "type": "string"
        },
        {
          "internalType": "uint256",
          "name": "_price",
          "type": "uint256"
        },
        {
          "internalType": "bool",
          "name": "_isForSale",
          "type": "bool"
        }
      ],
      "name": "updateGame",
      "outputs": [],
      "stateMutability": "nonpayable",
      "type": "function"
    },
    {
      "inputs": [
        {
          "internalType": "string",
          "name": "_title",
          "type": "string"
        }
      ],
      "name": "removeGame",
      "outputs": [],
      "stateMutability": "nonpayable",
      "type": "function"
    },
    {
      "inputs": [],
      "name": "totalGames",
      "outputs": [
        {
          "internalType": "uint256",
          "name": "",
          "type": "uint256"
        }
      ],
      "stateMutability": "view",
      "type": "function",
      "constant": true
    }
  ],
  "bytecode": "0x608060405234801561001057600080fd5b50611bc4806100206000396000f3fe6080604052600436106100865760003560e01c8063a2f77bcc11610059578063a2f77bcc1461015d578063a5c86b771461019e578063a6c12997146101c7578063c8b9bedb14610204578063dbef65281461022d57610086565b8063117a5b901461008b5780632c4e591b146100cc57806338696766146100f7578063873c39a514610134575b600080fd5b34801561009757600080fd5b506100b260048036038101906100ad9190611357565b610249565b6040516100c395949392919061175f565b60405180910390f35b3480156100d857600080fd5b506100e16103cc565b6040516100ee9190611882565b60405180910390f35b34801561010357600080fd5b5061011e60048036038101906101199190611357565b6103d8565b60405161012b9190611744565b60405180910390f35b34801561014057600080fd5b5061015b60048036038101906101569190611380565b61040b565b005b34801561016957600080fd5b50610184600480360381019061017f9190611357565b610547565b60405161019595949392919061175f565b60405180910390f35b3480156101aa57600080fd5b506101c560048036038101906101c091906112d8565b61070a565b005b3480156101d357600080fd5b506101ee60048036038101906101e99190611297565b610908565b6040516101fb9190611860565b60405180910390f35b34801561021057600080fd5b5061022b60048036038101906102269190611297565b610b70565b005b61024760048036038101906102429190611297565b610d88565b005b6000818154811061025957600080fd5b906000526020600020906004020160009150905080600001805461027c90611a47565b80601f01602080910402602001604051908101604052809291908181526020018280546102a890611a47565b80156102f55780601f106102ca576101008083540402835291602001916102f5565b820191906000526020600020905b8154815290600101906020018083116102d857829003601f168201915b50505050509080600101805461030a90611a47565b80601f016020809104026020016040519081016040528092919081815260200182805461033690611a47565b80156103835780601f1061035857610100808354040283529160200191610383565b820191906000526020600020905b81548152906001019060200180831161036657829003601f168201915b5050505050908060020154908060030160009054906101000a900473ffffffffffffffffffffffffffffffffffffffff16908060030160149054906101000a900460ff16905085565b60008080549050905090565b60016020528060005260406000206000915054906101000a900473ffffffffffffffffffffffffffffffffffffffff1681565b6000808681548110610446577f4e487b7100000000000000000000000000000000000000000000000000000000600052603260045260246000fd5b906000526020600020906004020190508060030160009054906101000a900473ffffffffffffffffffffffffffffffffffffffff1673ffffffffffffffffffffffffffffffffffffffff163373ffffffffffffffffffffffffffffffffffffffff16146104e8576040517f08c379a00000000000000000000000000000000000000000000000000000000081526004016104df90611820565b60405180910390fd5b848160000190805190602001906105009291906110db565b50838160010190805190602001906105199291906110db565b50828160020181905550818160030160146101000a81548160ff021916908315150217905550505050505050565b6060806000806000806000878154811061058a577f4e487b7100000000000000000000000000000000000000000000000000000000600052603260045260246000fd5b90600052602060002090600402019050806000018160010182600201548360030160009054906101000a900473ffffffffffffffffffffffffffffffffffffffff168460030160149054906101000a900460ff168480546105ea90611a47565b80601f016020809104026020016040519081016040528092919081815260200182805461061690611a47565b80156106635780601f1061063857610100808354040283529160200191610663565b820191906000526020600020905b81548152906001019060200180831161064657829003601f168201915b5050505050945083805461067690611a47565b80601f01602080910402602001604051908101604052809291908181526020018280546106a290611a47565b80156106ef5780601f106106c4576101008083540402835291602001916106ef565b820191906000526020600020905b8154815290600101906020018083116106d257829003601f168201915b50505050509350955095509550955095505091939590929450565b60006040518060a001604052808581526020018481526020018381526020013373ffffffffffffffffffffffffffffffffffffffff16815260200160011515815250908060018154018082558091505060019003906000526020600020906004020160009091909190915060008201518160000190805190602001906107919291906110db565b5060208201518160010190805190602001906107ae9291906110db565b506040820151816002015560608201518160030160006101000a81548173ffffffffffffffffffffffffffffffffffffffff021916908373ffffffffffffffffffffffffffffffffffffffff16021790555060808201518160030160146101000a81548160ff021916908315150217905550505060006001600080549050610836919061195f565b9050336001600083815260200190815260200160002060006101000a81548173ffffffffffffffffffffffffffffffffffffffff021916908373ffffffffffffffffffffffffffffffffffffffff1602179055508060038560405161089b919061172d565b908152602001604051809103902081905550600260003373ffffffffffffffffffffffffffffffffffffffff1673ffffffffffffffffffffffffffffffffffffffff16815260200190815260200160002060008154809291906108fd90611a79565b919050555050505050565b610910611161565b6000600383604051610922919061172d565b908152602001604051809103902054905060008111610976576040517f08c379a000000000000000000000000000000000000000000000000000000000815260040161096d906117e0565b60405180910390fd5b600081815481106109b0577f4e487b7100000000000000000000000000000000000000000000000000000000600052603260045260246000fd5b90600052602060002090600402016040518060a00160405290816000820180546109d990611a47565b80601f0160208091040260200160405190810160405280929190818152602001828054610a0590611a47565b8015610a525780601f10610a2757610100808354040283529160200191610a52565b820191906000526020600020905b815481529060010190602001808311610a3557829003601f168201915b50505050508152602001600182018054610a6b90611a47565b80601f0160208091040260200160405190810160405280929190818152602001828054610a9790611a47565b8015610ae45780601f10610ab957610100808354040283529160200191610ae4565b820191906000526020600020905b815481529060010190602001808311610ac757829003601f168201915b50505050508152602001600282015481526020016003820160009054906101000a900473ffffffffffffffffffffffffffffffffffffffff1673ffffffffffffffffffffffffffffffffffffffff1673ffffffffffffffffffffffffffffffffffffffff1681526020016003820160149054906101000a900460ff161515151581525050915050919050565b6000600382604051610b82919061172d565b908152602001604051809103902054905060008111610bd6576040517f08c379a0000000000000000000000000000000000000000000000000000000008152600401610bcd906117e0565b60405180910390fd5b6000808281548110610c11577f4e487b7100000000000000000000000000000000000000000000000000000000600052603260045260246000fd5b906000526020600020906004020190508060030160009054906101000a900473ffffffffffffffffffffffffffffffffffffffff1673ffffffffffffffffffffffffffffffffffffffff163373ffffffffffffffffffffffffffffffffffffffff1614610cb3576040517f08c379a0000000000000000000000000000000000000000000000000000000008152600401610caa906117c0565b60405180910390fd5b60008281548110610ced577f4e487b7100000000000000000000000000000000000000000000000000000000600052603260045260246000fd5b906000526020600020906004020160008082016000610d0c91906111a8565b600182016000610d1c91906111a8565b60028201600090556003820160006101000a81549073ffffffffffffffffffffffffffffffffffffffff02191690556003820160146101000a81549060ff02191690555050600383604051610d71919061172d565b908152602001604051809103902060009055505050565b6000600382604051610d9a919061172d565b908152602001604051809103902054905060008111610dee576040517f08c379a0000000000000000000000000000000000000000000000000000000008152600401610de5906117e0565b60405180910390fd5b6000808281548110610e29577f4e487b7100000000000000000000000000000000000000000000000000000000600052603260045260246000fd5b906000526020600020906004020190508060030160149054906101000a900460ff16610e8a576040517f08c379a0000000000000000000000000000000000000000000000000000000008152600401610e8190611840565b60405180910390fd5b80600201543414610ed0576040517f08c379a0000000000000000000000000000000000000000000000000000000008152600401610ec790611800565b60405180910390fd5b60008160030160009054906101000a900473ffffffffffffffffffffffffffffffffffffffff169050338260030160006101000a81548173ffffffffffffffffffffffffffffffffffffffff021916908373ffffffffffffffffffffffffffffffffffffffff16021790555060008260030160146101000a81548160ff021916908315150217905550600260008273ffffffffffffffffffffffffffffffffffffffff1673ffffffffffffffffffffffffffffffffffffffff1681526020019081526020016000206000815480929190610fa990611a1d565b9190505550600260003373ffffffffffffffffffffffffffffffffffffffff1673ffffffffffffffffffffffffffffffffffffffff1681526020019081526020016000206000815480929190610ffe90611a79565b9190505550336001600085815260200190815260200160002060006101000a81548173ffffffffffffffffffffffffffffffffffffffff021916908373ffffffffffffffffffffffffffffffffffffffff1602179055508073ffffffffffffffffffffffffffffffffffffffff166108fc349081150290604051600060405180830381858888f1935050505015801561109b573d6000803e3d6000fd5b507f5bc372bf09bc87294a7d82575b4b6776df78a8535a1cf399961f165f1a94b4b883336040516110cd92919061189d565b60405180910390a150505050565b8280546110e790611a47565b90600052602060002090601f0160209004810192826111095760008555611150565b82601f1061112257805160ff1916838001178555611150565b82800160010185558215611150579182015b8281111561114f578251825591602001919060010190611134565b5b50905061115d91906111e8565b5090565b6040518060a00160405280606081526020016060815260200160008152602001600073ffffffffffffffffffffffffffffffffffffffff1681526020016000151581525090565b5080546111b490611a47565b6000825580601f106111c657506111e5565b601f0160209004906000526020600020908101906111e491906111e8565b5b50565b5b808211156112015760008160009055506001016111e9565b5090565b6000611218611213846118f7565b6118c6565b90508281526020810184848401111561123057600080fd5b61123b8482856119db565b509392505050565b60008135905061125281611b60565b92915050565b600082601f83011261126957600080fd5b8135611279848260208601611205565b91505092915050565b60008135905061129181611b77565b92915050565b6000602082840312156112a957600080fd5b600082013567ffffffffffffffff8111156112c357600080fd5b6112cf84828501611258565b91505092915050565b6000806000606084860312156112ed57600080fd5b600084013567ffffffffffffffff81111561130757600080fd5b61131386828701611258565b935050602084013567ffffffffffffffff81111561133057600080fd5b61133c86828701611258565b925050604061134d86828701611282565b9150509250925092565b60006020828403121561136957600080fd5b600061137784828501611282565b91505092915050565b600080600080600060a0868803121561139857600080fd5b60006113a688828901611282565b955050602086013567ffffffffffffffff8111156113c357600080fd5b6113cf88828901611258565b945050604086013567ffffffffffffffff8111156113ec57600080fd5b6113f888828901611258565b935050606061140988828901611282565b925050608061141a88828901611243565b9150509295509295909350565b61143081611993565b82525050565b61143f81611993565b82525050565b61144e816119a5565b82525050565b61145d816119a5565b82525050565b600061146e82611927565b6114788185611932565b93506114888185602086016119ea565b61149181611b4f565b840191505092915050565b60006114a782611927565b6114b18185611943565b93506114c18185602086016119ea565b6114ca81611b4f565b840191505092915050565b60006114e082611927565b6114ea8185611954565b93506114fa8185602086016119ea565b80840191505092915050565b6000611513602283611943565b91507f4f6e6c7920746865206f776e65722063616e2072656d6f76652074686520676160008301527f6d650000000000000000000000000000000000000000000000000000000000006020830152604082019050919050565b6000611579600e83611943565b91507f47616d65206e6f7420666f756e640000000000000000000000000000000000006000830152602082019050919050565b60006115b9600f83611943565b91507f496e636f72726563742076616c756500000000000000000000000000000000006000830152602082019050919050565b60006115f9602283611943565b91507f4f6e6c7920746865206f776e65722063616e207570646174652074686520676160008301527f6d650000000000000000000000000000000000000000000000000000000000006020830152604082019050919050565b600061165f601483611943565b91507f47616d65206973206e6f7420666f722073616c650000000000000000000000006000830152602082019050919050565b600060a08301600083015184820360008601526116af8282611463565b915050602083015184820360208601526116c98282611463565b91505060408301516116de604086018261170f565b5060608301516116f16060860182611427565b5060808301516117046080860182611445565b508091505092915050565b611718816119d1565b82525050565b611727816119d1565b82525050565b600061173982846114d5565b915081905092915050565b60006020820190506117596000830184611436565b92915050565b600060a0820190508181036000830152611779818861149c565b9050818103602083015261178d818761149c565b905061179c604083018661171e565b6117a96060830185611436565b6117b66080830184611454565b9695505050505050565b600060208201905081810360008301526117d981611506565b9050919050565b600060208201905081810360008301526117f98161156c565b9050919050565b60006020820190508181036000830152611819816115ac565b9050919050565b60006020820190508181036000830152611839816115ec565b9050919050565b6000602082019050818103600083015261185981611652565b9050919050565b6000602082019050818103600083015261187a8184611692565b905092915050565b6000602082019050611897600083018461171e565b92915050565b60006040820190506118b2600083018561171e565b6118bf6020830184611436565b9392505050565b6000604051905081810181811067ffffffffffffffff821117156118ed576118ec611b20565b5b8060405250919050565b600067ffffffffffffffff82111561191257611911611b20565b5b601f19601f8301169050602081019050919050565b600081519050919050565b600082825260208201905092915050565b600082825260208201905092915050565b600081905092915050565b600061196a826119d1565b9150611975836119d1565b92508282101561198857611987611ac2565b5b828203905092915050565b600061199e826119b1565b9050919050565b60008115159050919050565b600073ffffffffffffffffffffffffffffffffffffffff82169050919050565b6000819050919050565b82818337600083830152505050565b60005b83811015611a085780820151818401526020810190506119ed565b83811115611a17576000848401525b50505050565b6000611a28826119d1565b91506000821415611a3c57611a3b611ac2565b5b600182039050919050565b60006002820490506001821680611a5f57607f821691505b60208210811415611a7357611a72611af1565b5b50919050565b6000611a84826119d1565b91507fffffffffffffffffffffffffffffffffffffffffffffffffffffffffffffffff821415611ab757611ab6611ac2565b5b600182019050919050565b7f4e487b7100000000000000000000000000000000000000000000000000000000600052601160045260246000fd5b7f4e487b7100000000000000000000000000000000000000000000000000000000600052602260045260246000fd5b7f4e487b7100000000000000000000000000000000000000000000000000000000600052604160045260246000fd5b6000601f19601f8301169050919050565b611b69816119a5565b8114611b7457600080fd5b50565b611b80816119d1565b8114611b8b57600080fd5b5056fea2646970667358221220a9a67a5a0f27592be45377373250043cc2743a6514819b8496c5a96c21df571764736f6c63430008000033",
  "immutableReferences": {},
  "source": "// SPDX-License-Identifier: MIT\r\npragma solidity ^0.8.0;\r\n\r\ncontract BoardGameShop {\r\n    struct Game {\r\n        string title;\r\n        string description;\r\n        uint price;\r\n        address owner;\r\n        bool isForSale;\r\n    }\r\n\r\n    Game[] public games;\r\n    mapping(uint => address) public gameToOwner;\r\n    mapping(address => uint) ownerGameCount;\r\n    mapping(string => uint) gameTitles; \r\n\r\n\r\n    function addGame(string memory _title, string memory _description, uint _price) public {\r\n        games.push(Game(_title, _description, _price, msg.sender, true));\r\n        uint gameId = games.length - 1;\r\n        gameToOwner[gameId] = msg.sender;\r\n        gameTitles[_title] = gameId; \r\n        ownerGameCount[msg.sender]++;\r\n    }\r\n\r\n    function getGame(uint _gameId) public view returns (string memory, string memory, uint, address, bool) {\r\n        Game storage game = games[_gameId];\r\n        return (game.title, game.description, game.price, game.owner, game.isForSale);\r\n    }\r\n     function getGameByName(string memory _title) public view returns (Game memory) {\r\n        uint gameId = gameTitles[_title];\r\n        require(gameId > 0, \"Game not found\"); // Ensure game exists\r\n        return games[gameId];\r\n    }\r\n    event GameBought(uint gameId, address buyer);\r\n    function buyGame(string memory _title) public payable {\r\n        uint gameId = gameTitles[_title];\r\n        require(gameId > 0, \"Game not found\");\r\n\r\n        Game storage game = games[gameId];\r\n        //require(msg.sender != game.owner, \"You cannot buy your own game\"); \r\n        require(game.isForSale, \"Game is not for sale\");\r\n        require(msg.value == game.price, \"Incorrect value\");  // Check price from game struct\r\n\r\n        address seller = game.owner;\r\n        game.owner = msg.sender;\r\n        game.isForSale = false;\r\n        ownerGameCount[seller]--;\r\n        ownerGameCount[msg.sender]++;\r\n        gameToOwner[gameId] = msg.sender;\r\n\r\n        payable(seller).transfer(msg.value);\r\n\r\n        emit GameBought(gameId, msg.sender);\r\n    }\r\n    \r\n\r\n    function updateGame(uint _gameId, string memory _title, string memory _description, uint _price, bool _isForSale) public {\r\n    Game storage game = games[_gameId];\r\n    require(msg.sender == game.owner, \"Only the owner can update the game\");\r\n\r\n    game.title = _title;\r\n    game.description = _description;\r\n    game.price = _price;\r\n    game.isForSale = _isForSale;\r\n}\r\n\r\nfunction removeGame(string memory _title) public {\r\n        uint gameId = gameTitles[_title];\r\n        require(gameId > 0, \"Game not found\"); // Ensure game exists\r\n\r\n        Game storage game = games[gameId];\r\n        require(msg.sender == game.owner, \"Only the owner can remove the game\");\r\n\r\n        delete games[gameId];\r\n        delete gameTitles[_title]; // Also remove from title mapping\r\n\r\n        // ... (rest of your existing remove logic if any)\r\n    }\r\n\r\n    function totalGames() public view returns (uint) {\r\n    return games.length;\r\n}\r\n}",
  "sourcePath": "C:\\Work\\flasksmartcontract\\contracts\\BoardGameShop.sol",
  "compiler": {
    "name": "solc",
    "version": "0.8.0+commit.c7dfd78e.Emscripten.clang"
  },
  "schemaVersion": "3.4.16",
  "updatedAt": "2024-06-26T10:53:27.766Z",
  "networkType": "ethereum",
  "devdoc": {
    "kind": "dev",
    "methods": {},
    "version": 1
  },
  "userdoc": {
    "kind": "user",
    "methods": {},
    "version": 1
  }
}