{
  "contractName": "BoardGameShop",
  "abi": [
    {
      "anonymous": false,
      "inputs": [
        {
          "indexed": false,
          "internalType": "uint256",
          "name": "gameId",
          "type": "uint256"
        },
        {
          "indexed": false,
          "internalType": "string",
          "name": "title",
          "type": "string"
        },
        {
          "indexed": false,
          "internalType": "uint256",
          "name": "price",
          "type": "uint256"
        }
      ],
      "name": "GameAdded",
      "type": "event"
    },
    {
      "anonymous": false,
      "inputs": [
        {
          "indexed": false,
          "internalType": "uint256",
          "name": "gameId",
          "type": "uint256"
        }
      ],
      "name": "GameRemoved",
      "type": "event"
    },
    {
      "anonymous": false,
      "inputs": [
        {
          "indexed": false,
          "internalType": "uint256",
          "name": "gameId",
          "type": "uint256"
        },
        {
          "indexed": false,
          "internalType": "address",
          "name": "buyer",
          "type": "address"
        }
      ],
      "name": "GameSold",
      "type": "event"
    },
    {
      "anonymous": false,
      "inputs": [
        {
          "indexed": false,
          "internalType": "uint256",
          "name": "gameId",
          "type": "uint256"
        },
        {
          "indexed": false,
          "internalType": "string",
          "name": "title",
          "type": "string"
        },
        {
          "indexed": false,
          "internalType": "uint256",
          "name": "price",
          "type": "uint256"
        }
      ],
      "name": "GameUpdated",
      "type": "event"
    },
    {
      "inputs": [
        {
          "internalType": "uint256",
          "name": "",
          "type": "uint256"
        }
      ],
      "name": "boardGames",
      "outputs": [
        {
          "internalType": "string",
          "name": "title",
          "type": "string"
        },
        {
          "internalType": "string",
          "name": "description",
          "type": "string"
        },
        {
          "internalType": "uint256",
          "name": "price",
          "type": "uint256"
        },
        {
          "internalType": "address",
          "name": "owner",
          "type": "address"
        },
        {
          "internalType": "bool",
          "name": "isForSale",
          "type": "bool"
        }
      ],
      "stateMutability": "view",
      "type": "function",
      "constant": true
    },
    {
      "inputs": [],
      "name": "gameCount",
      "outputs": [
        {
          "internalType": "uint256",
          "name": "",
          "type": "uint256"
        }
      ],
      "stateMutability": "view",
      "type": "function",
      "constant": true
    },
    {
      "inputs": [
        {
          "internalType": "string",
          "name": "_title",
          "type": "string"
        },
        {
          "internalType": "string",
          "name": "_description",
          "type": "string"
        },
        {
          "internalType": "uint256",
          "name": "_price",
          "type": "uint256"
        }
      ],
      "name": "addGame",
      "outputs": [],
      "stateMutability": "nonpayable",
      "type": "function"
    },
    {
      "inputs": [
        {
          "internalType": "uint256",
          "name": "_gameId",
          "type": "uint256"
        },
        {
          "internalType": "string",
          "name": "_title",
          "type": "string"
        },
        {
          "internalType": "string",
          "name": "_description",
          "type": "string"
        },
        {
          "internalType": "uint256",
          "name": "_price",
          "type": "uint256"
        }
      ],
      "name": "updateGame",
      "outputs": [],
      "stateMutability": "nonpayable",
      "type": "function"
    },
    {
      "inputs": [
        {
          "internalType": "uint256",
          "name": "_gameId",
          "type": "uint256"
        }
      ],
      "name": "buyGame",
      "outputs": [],
      "stateMutability": "payable",
      "type": "function",
      "payable": true
    },
    {
      "inputs": [
        {
          "internalType": "uint256",
          "name": "_gameId",
          "type": "uint256"
        }
      ],
      "name": "removeGame",
      "outputs": [],
      "stateMutability": "nonpayable",
      "type": "function"
    },
    {
      "inputs": [
        {
          "internalType": "uint256",
          "name": "_gameId",
          "type": "uint256"
        }
      ],
      "name": "getGame",
      "outputs": [
        {
          "internalType": "string",
          "name": "",
          "type": "string"
        },
        {
          "internalType": "string",
          "name": "",
          "type": "string"
        },
        {
          "internalType": "uint256",
          "name": "",
          "type": "uint256"
        },
        {
          "internalType": "address",
          "name": "",
          "type": "address"
        },
        {
          "internalType": "bool",
          "name": "",
          "type": "bool"
        }
      ],
      "stateMutability": "view",
      "type": "function",
      "constant": true
    }
  ],
  "bytecode": "0x608060405234801561001057600080fd5b506112e6806100206000396000f3fe6080604052600436106100705760003560e01c8063a2f77bcc1161004e578063a2f77bcc1461010a578063a5c86b771461014b578063c400af3114610174578063f77605171461019d57610070565b8063466b4ebc146100755780634d1975b4146100b657806373d31240146100e1575b600080fd5b34801561008157600080fd5b5061009c60048036038101906100979190610ca8565b6101b9565b6040516100ad959493929190610f16565b60405180910390f35b3480156100c257600080fd5b506100cb61032c565b6040516100d89190610ff7565b60405180910390f35b3480156100ed57600080fd5b5061010860048036038101906101039190610ca8565b610332565b005b34801561011657600080fd5b50610131600480360381019061012c9190610ca8565b610487565b604051610142959493929190610f16565b60405180910390f35b34801561015757600080fd5b50610172600480360381019061016d9190610c29565b61067b565b005b34801561018057600080fd5b5061019b60048036038101906101969190610cd1565b6107d7565b005b6101b760048036038101906101b29190610ca8565b61090d565b005b60006020528060005260406000206000915090508060000180546101dc90611180565b80601f016020809104026020016040519081016040528092919081815260200182805461020890611180565b80156102555780601f1061022a57610100808354040283529160200191610255565b820191906000526020600020905b81548152906001019060200180831161023857829003601f168201915b50505050509080600101805461026a90611180565b80601f016020809104026020016040519081016040528092919081815260200182805461029690611180565b80156102e35780601f106102b8576101008083540402835291602001916102e3565b820191906000526020600020905b8154815290600101906020018083116102c657829003601f168201915b5050505050908060020154908060030160009054906101000a900473ffffffffffffffffffffffffffffffffffffffff16908060030160149054906101000a900460ff16905085565b60015481565b3373ffffffffffffffffffffffffffffffffffffffff1660008083815260200190815260200160002060030160009054906101000a900473ffffffffffffffffffffffffffffffffffffffff1673ffffffffffffffffffffffffffffffffffffffff16146103d5576040517f08c379a00000000000000000000000000000000000000000000000000000000081526004016103cc90610f77565b60405180910390fd5b600080828152602001908152602001600020600080820160006103f89190610ac9565b6001820160006104089190610ac9565b60028201600090556003820160006101000a81549073ffffffffffffffffffffffffffffffffffffffff02191690556003820160146101000a81549060ff021916905550507fa5b60816e58ebc3aefc8d7d132f4e2ac8884aad58a49e38957c45fe164f0189d8160405161047c9190610ff7565b60405180910390a150565b6060806000806000806000808881526020019081526020016000206040518060a00160405290816000820180546104bd90611180565b80601f01602080910402602001604051908101604052809291908181526020018280546104e990611180565b80156105365780601f1061050b57610100808354040283529160200191610536565b820191906000526020600020905b81548152906001019060200180831161051957829003601f168201915b5050505050815260200160018201805461054f90611180565b80601f016020809104026020016040519081016040528092919081815260200182805461057b90611180565b80156105c85780601f1061059d576101008083540402835291602001916105c8565b820191906000526020600020905b8154815290600101906020018083116105ab57829003601f168201915b50505050508152602001600282015481526020016003820160009054906101000a900473ffffffffffffffffffffffffffffffffffffffff1673ffffffffffffffffffffffffffffffffffffffff1673ffffffffffffffffffffffffffffffffffffffff1681526020016003820160149054906101000a900460ff161515151581525050905080600001518160200151826040015183606001518460800151955095509550955095505091939590929450565b6001600081548092919061068e906111b2565b91905055506040518060a001604052808481526020018381526020018281526020013373ffffffffffffffffffffffffffffffffffffffff1681526020016001151581525060008060015481526020019081526020016000206000820151816000019080519060200190610703929190610b09565b506020820151816001019080519060200190610720929190610b09565b506040820151816002015560608201518160030160006101000a81548173ffffffffffffffffffffffffffffffffffffffff021916908373ffffffffffffffffffffffffffffffffffffffff16021790555060808201518160030160146101000a81548160ff0219169083151502179055509050507fac833eae17875ec200b6d7786335b3d9b281a234e14cb7c3d23fd6dff0eac67f60015484836040516107ca9392919061103b565b60405180910390a1505050565b3373ffffffffffffffffffffffffffffffffffffffff1660008086815260200190815260200160002060030160009054906101000a900473ffffffffffffffffffffffffffffffffffffffff1673ffffffffffffffffffffffffffffffffffffffff161461087a576040517f08c379a000000000000000000000000000000000000000000000000000000000815260040161087190610fb7565b60405180910390fd5b60008060008681526020019081526020016000209050838160000190805190602001906108a8929190610b09565b50828160010190805190602001906108c1929190610b09565b508181600201819055507fa7c973ec6fbeb8c46538604af19a9fec25bff272778e40ad5530cbfff8605b148585846040516108fe9392919061103b565b60405180910390a15050505050565b600080600083815260200190815260200160002090508060030160149054906101000a900460ff16610974576040517f08c379a000000000000000000000000000000000000000000000000000000000815260040161096b90610fd7565b60405180910390fd5b80600201543410156109bb576040517f08c379a00000000000000000000000000000000000000000000000000000000081526004016109b290610f97565b60405180910390fd5b60008160030160009054906101000a900473ffffffffffffffffffffffffffffffffffffffff1690508073ffffffffffffffffffffffffffffffffffffffff166108fc349081150290604051600060405180830381858888f19350505050158015610a2a573d6000803e3d6000fd5b50338260030160006101000a81548173ffffffffffffffffffffffffffffffffffffffff021916908373ffffffffffffffffffffffffffffffffffffffff16021790555060008260030160146101000a81548160ff0219169083151502179055507f1fd9b8cc1feb5129965ae0a11ed808ff62d03915573a2824761d4aec060693908333604051610abc929190611012565b60405180910390a1505050565b508054610ad590611180565b6000825580601f10610ae75750610b06565b601f016020900490600052602060002090810190610b059190610b8f565b5b50565b828054610b1590611180565b90600052602060002090601f016020900481019282610b375760008555610b7e565b82601f10610b5057805160ff1916838001178555610b7e565b82800160010185558215610b7e579182015b82811115610b7d578251825591602001919060010190610b62565b5b509050610b8b9190610b8f565b5090565b5b80821115610ba8576000816000905550600101610b90565b5090565b6000610bbf610bba846110aa565b611079565b905082815260208101848484011115610bd757600080fd5b610be284828561113e565b509392505050565b600082601f830112610bfb57600080fd5b8135610c0b848260208601610bac565b91505092915050565b600081359050610c2381611299565b92915050565b600080600060608486031215610c3e57600080fd5b600084013567ffffffffffffffff811115610c5857600080fd5b610c6486828701610bea565b935050602084013567ffffffffffffffff811115610c8157600080fd5b610c8d86828701610bea565b9250506040610c9e86828701610c14565b9150509250925092565b600060208284031215610cba57600080fd5b6000610cc884828501610c14565b91505092915050565b60008060008060808587031215610ce757600080fd5b6000610cf587828801610c14565b945050602085013567ffffffffffffffff811115610d1257600080fd5b610d1e87828801610bea565b935050604085013567ffffffffffffffff811115610d3b57600080fd5b610d4787828801610bea565b9250506060610d5887828801610c14565b91505092959194509250565b610d6d816110f6565b82525050565b610d7c81611108565b82525050565b6000610d8d826110da565b610d9781856110e5565b9350610da781856020860161114d565b610db081611288565b840191505092915050565b6000610dc86022836110e5565b91507f4f6e6c7920746865206f776e65722063616e2072656d6f76652074686520676160008301527f6d650000000000000000000000000000000000000000000000000000000000006020830152604082019050919050565b6000610e2e6012836110e5565b91507f496e73756666696369656e742066756e647300000000000000000000000000006000830152602082019050919050565b6000610e6e6022836110e5565b91507f4f6e6c7920746865206f776e65722063616e207570646174652074686520676160008301527f6d650000000000000000000000000000000000000000000000000000000000006020830152604082019050919050565b6000610ed46014836110e5565b91507f47616d65206973206e6f7420666f722073616c650000000000000000000000006000830152602082019050919050565b610f1081611134565b82525050565b600060a0820190508181036000830152610f308188610d82565b90508181036020830152610f448187610d82565b9050610f536040830186610f07565b610f606060830185610d64565b610f6d6080830184610d73565b9695505050505050565b60006020820190508181036000830152610f9081610dbb565b9050919050565b60006020820190508181036000830152610fb081610e21565b9050919050565b60006020820190508181036000830152610fd081610e61565b9050919050565b60006020820190508181036000830152610ff081610ec7565b9050919050565b600060208201905061100c6000830184610f07565b92915050565b60006040820190506110276000830185610f07565b6110346020830184610d64565b9392505050565b60006060820190506110506000830186610f07565b81810360208301526110628185610d82565b90506110716040830184610f07565b949350505050565b6000604051905081810181811067ffffffffffffffff821117156110a05761109f611259565b5b8060405250919050565b600067ffffffffffffffff8211156110c5576110c4611259565b5b601f19601f8301169050602081019050919050565b600081519050919050565b600082825260208201905092915050565b600061110182611114565b9050919050565b60008115159050919050565b600073ffffffffffffffffffffffffffffffffffffffff82169050919050565b6000819050919050565b82818337600083830152505050565b60005b8381101561116b578082015181840152602081019050611150565b8381111561117a576000848401525b50505050565b6000600282049050600182168061119857607f821691505b602082108114156111ac576111ab61122a565b5b50919050565b60006111bd82611134565b91507fffffffffffffffffffffffffffffffffffffffffffffffffffffffffffffffff8214156111f0576111ef6111fb565b5b600182019050919050565b7f4e487b7100000000000000000000000000000000000000000000000000000000600052601160045260246000fd5b7f4e487b7100000000000000000000000000000000000000000000000000000000600052602260045260246000fd5b7f4e487b7100000000000000000000000000000000000000000000000000000000600052604160045260246000fd5b6000601f19601f8301169050919050565b6112a281611134565b81146112ad57600080fd5b5056fea2646970667358221220d00173226e0e993c167eb238abda4dd2a131573ff7ae3965ea3eb4116d64b6c764736f6c63430008000033",
  "immutableReferences": {},
  "source": "contract BoardGameShop {\r\n    struct BoardGame {\r\n        string title;\r\n        string description;\r\n        uint256 price;\r\n        address owner;\r\n        bool isForSale;\r\n    }\r\n\r\n    mapping(uint256 => BoardGame) public boardGames;\r\n    uint256 public gameCount;\r\n\r\n    event GameAdded(uint256 gameId, string title, uint256 price);\r\n    event GameUpdated(uint256 gameId, string title, uint256 price);\r\n    event GameSold(uint256 gameId, address buyer);\r\n    event GameRemoved(uint256 gameId);\r\n\r\n    function addGame(string memory _title, string memory _description, uint256 _price) public {\r\n        gameCount++;\r\n        boardGames[gameCount] = BoardGame(_title, _description, _price, msg.sender, true);\r\n        emit GameAdded(gameCount, _title, _price);\r\n    }\r\n\r\n    function updateGame(uint256 _gameId, string memory _title, string memory _description, uint256 _price) public {\r\n        require(boardGames[_gameId].owner == msg.sender, \"Only the owner can update the game\");\r\n        BoardGame storage game = boardGames[_gameId];\r\n        game.title = _title;\r\n        game.description = _description;\r\n        game.price = _price;\r\n        emit GameUpdated(_gameId, _title, _price);\r\n    }\r\n\r\n    function buyGame(uint256 _gameId) public payable {\r\n        BoardGame storage game = boardGames[_gameId];\r\n        require(game.isForSale, \"Game is not for sale\");\r\n        require(msg.value >= game.price, \"Insufficient funds\");\r\n\r\n        address payable seller = payable(game.owner);\r\n        seller.transfer(msg.value);\r\n        game.owner = msg.sender;\r\n        game.isForSale = false;\r\n\r\n        emit GameSold(_gameId, msg.sender);\r\n    }\r\n\r\n    function removeGame(uint256 _gameId) public {\r\n        require(boardGames[_gameId].owner == msg.sender, \"Only the owner can remove the game\");\r\n        delete boardGames[_gameId];\r\n        emit GameRemoved(_gameId);\r\n    }\r\n\r\n    function getGame(uint256 _gameId) public view returns (string memory, string memory, uint256, address, bool) {\r\n        BoardGame memory game = boardGames[_gameId];\r\n        return (game.title, game.description, game.price, game.owner, game.isForSale);\r\n    }\r\n}",
  "sourcePath": "C:\\Work\\flasksmartcontract\\contracts\\BoardGameShop.sol",
  "compiler": {
    "name": "solc",
    "version": "0.8.0+commit.c7dfd78e.Emscripten.clang"
  },
  "schemaVersion": "3.4.16",
  "updatedAt": "2024-06-26T06:41:44.699Z",
  "networkType": "ethereum",
  "devdoc": {
    "kind": "dev",
    "methods": {},
    "version": 1
  },
  "userdoc": {
    "kind": "user",
    "methods": {},
    "version": 1
  }
}