{
  "contractName": "BoardGameShop",
  "abi": [
    {
      "inputs": [
        {
          "internalType": "uint256",
          "name": "",
          "type": "uint256"
        }
      ],
      "name": "gameToOwner",
      "outputs": [
        {
          "internalType": "address",
          "name": "",
          "type": "address"
        }
      ],
      "stateMutability": "view",
      "type": "function",
      "constant": true
    },
    {
      "inputs": [
        {
          "internalType": "uint256",
          "name": "",
          "type": "uint256"
        }
      ],
      "name": "games",
      "outputs": [
        {
          "internalType": "string",
          "name": "title",
          "type": "string"
        },
        {
          "internalType": "string",
          "name": "description",
          "type": "string"
        },
        {
          "internalType": "uint256",
          "name": "price",
          "type": "uint256"
        },
        {
          "internalType": "address",
          "name": "owner",
          "type": "address"
        },
        {
          "internalType": "bool",
          "name": "isForSale",
          "type": "bool"
        }
      ],
      "stateMutability": "view",
      "type": "function",
      "constant": true
    },
    {
      "inputs": [
        {
          "internalType": "string",
          "name": "_title",
          "type": "string"
        },
        {
          "internalType": "string",
          "name": "_description",
          "type": "string"
        },
        {
          "internalType": "uint256",
          "name": "_price",
          "type": "uint256"
        }
      ],
      "name": "addGame",
      "outputs": [],
      "stateMutability": "nonpayable",
      "type": "function"
    },
    {
      "inputs": [
        {
          "internalType": "uint256",
          "name": "_gameId",
          "type": "uint256"
        }
      ],
      "name": "getGame",
      "outputs": [
        {
          "internalType": "string",
          "name": "",
          "type": "string"
        },
        {
          "internalType": "string",
          "name": "",
          "type": "string"
        },
        {
          "internalType": "uint256",
          "name": "",
          "type": "uint256"
        },
        {
          "internalType": "address",
          "name": "",
          "type": "address"
        },
        {
          "internalType": "bool",
          "name": "",
          "type": "bool"
        }
      ],
      "stateMutability": "view",
      "type": "function",
      "constant": true
    },
    {
      "inputs": [
        {
          "internalType": "string",
          "name": "_title",
          "type": "string"
        }
      ],
      "name": "getGameByName",
      "outputs": [
        {
          "components": [
            {
              "internalType": "string",
              "name": "title",
              "type": "string"
            },
            {
              "internalType": "string",
              "name": "description",
              "type": "string"
            },
            {
              "internalType": "uint256",
              "name": "price",
              "type": "uint256"
            },
            {
              "internalType": "address",
              "name": "owner",
              "type": "address"
            },
            {
              "internalType": "bool",
              "name": "isForSale",
              "type": "bool"
            }
          ],
          "internalType": "struct BoardGameShop.Game",
          "name": "",
          "type": "tuple"
        }
      ],
      "stateMutability": "view",
      "type": "function",
      "constant": true
    },
    {
      "inputs": [
        {
          "internalType": "uint256",
          "name": "_gameId",
          "type": "uint256"
        }
      ],
      "name": "buyGame",
      "outputs": [],
      "stateMutability": "payable",
      "type": "function",
      "payable": true
    },
    {
      "inputs": [
        {
          "internalType": "uint256",
          "name": "_gameId",
          "type": "uint256"
        },
        {
          "internalType": "string",
          "name": "_title",
          "type": "string"
        },
        {
          "internalType": "string",
          "name": "_description",
          "type": "string"
        },
        {
          "internalType": "uint256",
          "name": "_price",
          "type": "uint256"
        },
        {
          "internalType": "bool",
          "name": "_isForSale",
          "type": "bool"
        }
      ],
      "name": "updateGame",
      "outputs": [],
      "stateMutability": "nonpayable",
      "type": "function"
    },
    {
      "inputs": [
        {
          "internalType": "string",
          "name": "_title",
          "type": "string"
        }
      ],
      "name": "removeGame",
      "outputs": [],
      "stateMutability": "nonpayable",
      "type": "function"
    },
    {
      "inputs": [],
      "name": "totalGames",
      "outputs": [
        {
          "internalType": "uint256",
          "name": "",
          "type": "uint256"
        }
      ],
      "stateMutability": "view",
      "type": "function",
      "constant": true
    }
  ],
  "bytecode": "0x608060405234801561001057600080fd5b50611afb806100206000396000f3fe6080604052600436106100865760003560e01c8063a2f77bcc11610059578063a2f77bcc1461015d578063a5c86b771461019e578063a6c12997146101c7578063c8b9bedb14610204578063f77605171461022d57610086565b8063117a5b901461008b5780632c4e591b146100cc57806338696766146100f7578063873c39a514610134575b600080fd5b34801561009757600080fd5b506100b260048036038101906100ad91906112b7565b610249565b6040516100c39594939291906116bf565b60405180910390f35b3480156100d857600080fd5b506100e16103cc565b6040516100ee91906117e2565b60405180910390f35b34801561010357600080fd5b5061011e600480360381019061011991906112b7565b6103d8565b60405161012b91906116a4565b60405180910390f35b34801561014057600080fd5b5061015b600480360381019061015691906112e0565b61040b565b005b34801561016957600080fd5b50610184600480360381019061017f91906112b7565b610547565b6040516101959594939291906116bf565b60405180910390f35b3480156101aa57600080fd5b506101c560048036038101906101c09190611238565b61070a565b005b3480156101d357600080fd5b506101ee60048036038101906101e991906111f7565b610908565b6040516101fb91906117c0565b60405180910390f35b34801561021057600080fd5b5061022b600480360381019061022691906111f7565b610b70565b005b610247600480360381019061024291906112b7565b610d88565b005b6000818154811061025957600080fd5b906000526020600020906004020160009150905080600001805461027c9061197e565b80601f01602080910402602001604051908101604052809291908181526020018280546102a89061197e565b80156102f55780601f106102ca576101008083540402835291602001916102f5565b820191906000526020600020905b8154815290600101906020018083116102d857829003601f168201915b50505050509080600101805461030a9061197e565b80601f01602080910402602001604051908101604052809291908181526020018280546103369061197e565b80156103835780601f1061035857610100808354040283529160200191610383565b820191906000526020600020905b81548152906001019060200180831161036657829003601f168201915b5050505050908060020154908060030160009054906101000a900473ffffffffffffffffffffffffffffffffffffffff16908060030160149054906101000a900460ff16905085565b60008080549050905090565b60016020528060005260406000206000915054906101000a900473ffffffffffffffffffffffffffffffffffffffff1681565b6000808681548110610446577f4e487b7100000000000000000000000000000000000000000000000000000000600052603260045260246000fd5b906000526020600020906004020190508060030160009054906101000a900473ffffffffffffffffffffffffffffffffffffffff1673ffffffffffffffffffffffffffffffffffffffff163373ffffffffffffffffffffffffffffffffffffffff16146104e8576040517f08c379a00000000000000000000000000000000000000000000000000000000081526004016104df90611780565b60405180910390fd5b8481600001908051906020019061050092919061103b565b508381600101908051906020019061051992919061103b565b50828160020181905550818160030160146101000a81548160ff021916908315150217905550505050505050565b6060806000806000806000878154811061058a577f4e487b7100000000000000000000000000000000000000000000000000000000600052603260045260246000fd5b90600052602060002090600402019050806000018160010182600201548360030160009054906101000a900473ffffffffffffffffffffffffffffffffffffffff168460030160149054906101000a900460ff168480546105ea9061197e565b80601f01602080910402602001604051908101604052809291908181526020018280546106169061197e565b80156106635780601f1061063857610100808354040283529160200191610663565b820191906000526020600020905b81548152906001019060200180831161064657829003601f168201915b505050505094508380546106769061197e565b80601f01602080910402602001604051908101604052809291908181526020018280546106a29061197e565b80156106ef5780601f106106c4576101008083540402835291602001916106ef565b820191906000526020600020905b8154815290600101906020018083116106d257829003601f168201915b50505050509350955095509550955095505091939590929450565b60006040518060a001604052808581526020018481526020018381526020013373ffffffffffffffffffffffffffffffffffffffff168152602001600115158152509080600181540180825580915050600190039060005260206000209060040201600090919091909150600082015181600001908051906020019061079192919061103b565b5060208201518160010190805190602001906107ae92919061103b565b506040820151816002015560608201518160030160006101000a81548173ffffffffffffffffffffffffffffffffffffffff021916908373ffffffffffffffffffffffffffffffffffffffff16021790555060808201518160030160146101000a81548160ff0219169083151502179055505050600060016000805490506108369190611896565b9050336001600083815260200190815260200160002060006101000a81548173ffffffffffffffffffffffffffffffffffffffff021916908373ffffffffffffffffffffffffffffffffffffffff1602179055508060038560405161089b919061168d565b908152602001604051809103902081905550600260003373ffffffffffffffffffffffffffffffffffffffff1673ffffffffffffffffffffffffffffffffffffffff16815260200190815260200160002060008154809291906108fd906119b0565b919050555050505050565b6109106110c1565b6000600383604051610922919061168d565b908152602001604051809103902054905060008111610976576040517f08c379a000000000000000000000000000000000000000000000000000000000815260040161096d90611740565b60405180910390fd5b600081815481106109b0577f4e487b7100000000000000000000000000000000000000000000000000000000600052603260045260246000fd5b90600052602060002090600402016040518060a00160405290816000820180546109d99061197e565b80601f0160208091040260200160405190810160405280929190818152602001828054610a059061197e565b8015610a525780601f10610a2757610100808354040283529160200191610a52565b820191906000526020600020905b815481529060010190602001808311610a3557829003601f168201915b50505050508152602001600182018054610a6b9061197e565b80601f0160208091040260200160405190810160405280929190818152602001828054610a979061197e565b8015610ae45780601f10610ab957610100808354040283529160200191610ae4565b820191906000526020600020905b815481529060010190602001808311610ac757829003601f168201915b50505050508152602001600282015481526020016003820160009054906101000a900473ffffffffffffffffffffffffffffffffffffffff1673ffffffffffffffffffffffffffffffffffffffff1673ffffffffffffffffffffffffffffffffffffffff1681526020016003820160149054906101000a900460ff161515151581525050915050919050565b6000600382604051610b82919061168d565b908152602001604051809103902054905060008111610bd6576040517f08c379a0000000000000000000000000000000000000000000000000000000008152600401610bcd90611740565b60405180910390fd5b6000808281548110610c11577f4e487b7100000000000000000000000000000000000000000000000000000000600052603260045260246000fd5b906000526020600020906004020190508060030160009054906101000a900473ffffffffffffffffffffffffffffffffffffffff1673ffffffffffffffffffffffffffffffffffffffff163373ffffffffffffffffffffffffffffffffffffffff1614610cb3576040517f08c379a0000000000000000000000000000000000000000000000000000000008152600401610caa90611720565b60405180910390fd5b60008281548110610ced577f4e487b7100000000000000000000000000000000000000000000000000000000600052603260045260246000fd5b906000526020600020906004020160008082016000610d0c9190611108565b600182016000610d1c9190611108565b60028201600090556003820160006101000a81549073ffffffffffffffffffffffffffffffffffffffff02191690556003820160146101000a81549060ff02191690555050600383604051610d71919061168d565b908152602001604051809103902060009055505050565b6000808281548110610dc3577f4e487b7100000000000000000000000000000000000000000000000000000000600052603260045260246000fd5b906000526020600020906004020190508060030160149054906101000a900460ff16610e24576040517f08c379a0000000000000000000000000000000000000000000000000000000008152600401610e1b906117a0565b60405180910390fd5b80600201543414610e6a576040517f08c379a0000000000000000000000000000000000000000000000000000000008152600401610e6190611760565b60405180910390fd5b60008160030160009054906101000a900473ffffffffffffffffffffffffffffffffffffffff169050338260030160006101000a81548173ffffffffffffffffffffffffffffffffffffffff021916908373ffffffffffffffffffffffffffffffffffffffff16021790555060008260030160146101000a81548160ff021916908315150217905550600260008273ffffffffffffffffffffffffffffffffffffffff1673ffffffffffffffffffffffffffffffffffffffff1681526020019081526020016000206000815480929190610f4390611954565b9190505550600260003373ffffffffffffffffffffffffffffffffffffffff1673ffffffffffffffffffffffffffffffffffffffff1681526020019081526020016000206000815480929190610f98906119b0565b9190505550336001600085815260200190815260200160002060006101000a81548173ffffffffffffffffffffffffffffffffffffffff021916908373ffffffffffffffffffffffffffffffffffffffff1602179055508073ffffffffffffffffffffffffffffffffffffffff166108fc349081150290604051600060405180830381858888f19350505050158015611035573d6000803e3d6000fd5b50505050565b8280546110479061197e565b90600052602060002090601f01602090048101928261106957600085556110b0565b82601f1061108257805160ff19168380011785556110b0565b828001600101855582156110b0579182015b828111156110af578251825591602001919060010190611094565b5b5090506110bd9190611148565b5090565b6040518060a00160405280606081526020016060815260200160008152602001600073ffffffffffffffffffffffffffffffffffffffff1681526020016000151581525090565b5080546111149061197e565b6000825580601f106111265750611145565b601f0160209004906000526020600020908101906111449190611148565b5b50565b5b80821115611161576000816000905550600101611149565b5090565b60006111786111738461182e565b6117fd565b90508281526020810184848401111561119057600080fd5b61119b848285611912565b509392505050565b6000813590506111b281611a97565b92915050565b600082601f8301126111c957600080fd5b81356111d9848260208601611165565b91505092915050565b6000813590506111f181611aae565b92915050565b60006020828403121561120957600080fd5b600082013567ffffffffffffffff81111561122357600080fd5b61122f848285016111b8565b91505092915050565b60008060006060848603121561124d57600080fd5b600084013567ffffffffffffffff81111561126757600080fd5b611273868287016111b8565b935050602084013567ffffffffffffffff81111561129057600080fd5b61129c868287016111b8565b92505060406112ad868287016111e2565b9150509250925092565b6000602082840312156112c957600080fd5b60006112d7848285016111e2565b91505092915050565b600080600080600060a086880312156112f857600080fd5b6000611306888289016111e2565b955050602086013567ffffffffffffffff81111561132357600080fd5b61132f888289016111b8565b945050604086013567ffffffffffffffff81111561134c57600080fd5b611358888289016111b8565b9350506060611369888289016111e2565b925050608061137a888289016111a3565b9150509295509295909350565b611390816118ca565b82525050565b61139f816118ca565b82525050565b6113ae816118dc565b82525050565b6113bd816118dc565b82525050565b60006113ce8261185e565b6113d88185611869565b93506113e8818560208601611921565b6113f181611a86565b840191505092915050565b60006114078261185e565b611411818561187a565b9350611421818560208601611921565b61142a81611a86565b840191505092915050565b60006114408261185e565b61144a818561188b565b935061145a818560208601611921565b80840191505092915050565b600061147360228361187a565b91507f4f6e6c7920746865206f776e65722063616e2072656d6f76652074686520676160008301527f6d650000000000000000000000000000000000000000000000000000000000006020830152604082019050919050565b60006114d9600e8361187a565b91507f47616d65206e6f7420666f756e640000000000000000000000000000000000006000830152602082019050919050565b6000611519600f8361187a565b91507f496e636f72726563742076616c756500000000000000000000000000000000006000830152602082019050919050565b600061155960228361187a565b91507f4f6e6c7920746865206f776e65722063616e207570646174652074686520676160008301527f6d650000000000000000000000000000000000000000000000000000000000006020830152604082019050919050565b60006115bf60148361187a565b91507f47616d65206973206e6f7420666f722073616c650000000000000000000000006000830152602082019050919050565b600060a083016000830151848203600086015261160f82826113c3565b9150506020830151848203602086015261162982826113c3565b915050604083015161163e604086018261166f565b5060608301516116516060860182611387565b50608083015161166460808601826113a5565b508091505092915050565b61167881611908565b82525050565b61168781611908565b82525050565b60006116998284611435565b915081905092915050565b60006020820190506116b96000830184611396565b92915050565b600060a08201905081810360008301526116d981886113fc565b905081810360208301526116ed81876113fc565b90506116fc604083018661167e565b6117096060830185611396565b61171660808301846113b4565b9695505050505050565b6000602082019050818103600083015261173981611466565b9050919050565b60006020820190508181036000830152611759816114cc565b9050919050565b600060208201905081810360008301526117798161150c565b9050919050565b600060208201905081810360008301526117998161154c565b9050919050565b600060208201905081810360008301526117b9816115b2565b9050919050565b600060208201905081810360008301526117da81846115f2565b905092915050565b60006020820190506117f7600083018461167e565b92915050565b6000604051905081810181811067ffffffffffffffff8211171561182457611823611a57565b5b8060405250919050565b600067ffffffffffffffff82111561184957611848611a57565b5b601f19601f8301169050602081019050919050565b600081519050919050565b600082825260208201905092915050565b600082825260208201905092915050565b600081905092915050565b60006118a182611908565b91506118ac83611908565b9250828210156118bf576118be6119f9565b5b828203905092915050565b60006118d5826118e8565b9050919050565b60008115159050919050565b600073ffffffffffffffffffffffffffffffffffffffff82169050919050565b6000819050919050565b82818337600083830152505050565b60005b8381101561193f578082015181840152602081019050611924565b8381111561194e576000848401525b50505050565b600061195f82611908565b91506000821415611973576119726119f9565b5b600182039050919050565b6000600282049050600182168061199657607f821691505b602082108114156119aa576119a9611a28565b5b50919050565b60006119bb82611908565b91507fffffffffffffffffffffffffffffffffffffffffffffffffffffffffffffffff8214156119ee576119ed6119f9565b5b600182019050919050565b7f4e487b7100000000000000000000000000000000000000000000000000000000600052601160045260246000fd5b7f4e487b7100000000000000000000000000000000000000000000000000000000600052602260045260246000fd5b7f4e487b7100000000000000000000000000000000000000000000000000000000600052604160045260246000fd5b6000601f19601f8301169050919050565b611aa0816118dc565b8114611aab57600080fd5b50565b611ab781611908565b8114611ac257600080fd5b5056fea26469706673582212206f5fafce77c76343b55902e009928aad12c50d5ddbc8a6bc71148b98c0b4c89264736f6c63430008000033",
  "immutableReferences": {},
  "source": "// SPDX-License-Identifier: MIT\r\npragma solidity ^0.8.0;\r\n\r\ncontract BoardGameShop {\r\n    struct Game {\r\n        string title;\r\n        string description;\r\n        uint price;\r\n        address owner;\r\n        bool isForSale;\r\n    }\r\n\r\n    Game[] public games;\r\n    mapping(uint => address) public gameToOwner;\r\n    mapping(address => uint) ownerGameCount;\r\n    mapping(string => uint) gameTitles; \r\n\r\n\r\n    function addGame(string memory _title, string memory _description, uint _price) public {\r\n        games.push(Game(_title, _description, _price, msg.sender, true));\r\n        uint gameId = games.length - 1;\r\n        gameToOwner[gameId] = msg.sender;\r\n        gameTitles[_title] = gameId; \r\n        ownerGameCount[msg.sender]++;\r\n    }\r\n\r\n    function getGame(uint _gameId) public view returns (string memory, string memory, uint, address, bool) {\r\n        Game storage game = games[_gameId];\r\n        return (game.title, game.description, game.price, game.owner, game.isForSale);\r\n    }\r\n     function getGameByName(string memory _title) public view returns (Game memory) {\r\n        uint gameId = gameTitles[_title];\r\n        require(gameId > 0, \"Game not found\"); // Ensure game exists\r\n        return games[gameId];\r\n    }\r\n\r\n    function buyGame(uint _gameId) public payable {\r\n        Game storage game = games[_gameId];\r\n        require(game.isForSale, \"Game is not for sale\");\r\n        require(msg.value == game.price, \"Incorrect value\");\r\n\r\n        address seller = game.owner;\r\n        game.owner = msg.sender;\r\n        game.isForSale = false;\r\n        ownerGameCount[seller]--;\r\n        ownerGameCount[msg.sender]++;\r\n        gameToOwner[_gameId] = msg.sender;\r\n\r\n        payable(seller).transfer(msg.value);\r\n    }\r\n\r\n    function updateGame(uint _gameId, string memory _title, string memory _description, uint _price, bool _isForSale) public {\r\n    Game storage game = games[_gameId];\r\n    require(msg.sender == game.owner, \"Only the owner can update the game\");\r\n\r\n    game.title = _title;\r\n    game.description = _description;\r\n    game.price = _price;\r\n    game.isForSale = _isForSale;\r\n}\r\n\r\nfunction removeGame(string memory _title) public {\r\n        uint gameId = gameTitles[_title];\r\n        require(gameId > 0, \"Game not found\"); // Ensure game exists\r\n\r\n        Game storage game = games[gameId];\r\n        require(msg.sender == game.owner, \"Only the owner can remove the game\");\r\n\r\n        delete games[gameId];\r\n        delete gameTitles[_title]; // Also remove from title mapping\r\n\r\n        // ... (rest of your existing remove logic if any)\r\n    }\r\n\r\n    function totalGames() public view returns (uint) {\r\n    return games.length;\r\n}\r\n}",
  "sourcePath": "C:\\Work\\flasksmartcontract\\contracts\\BoardGameShop.sol",
  "compiler": {
    "name": "solc",
    "version": "0.8.0+commit.c7dfd78e.Emscripten.clang"
  },
  "schemaVersion": "3.4.16",
  "updatedAt": "2024-06-26T10:14:28.899Z",
  "networkType": "ethereum",
  "devdoc": {
    "kind": "dev",
    "methods": {},
    "version": 1
  },
  "userdoc": {
    "kind": "user",
    "methods": {},
    "version": 1
  }
}