{
  "contractName": "GameStore",
  "abi": [
    {
      "inputs": [],
      "name": "gameCount",
      "outputs": [
        {
          "internalType": "uint256",
          "name": "",
          "type": "uint256"
        }
      ],
      "stateMutability": "view",
      "type": "function"
    },
    {
      "inputs": [
        {
          "internalType": "uint256",
          "name": "",
          "type": "uint256"
        }
      ],
      "name": "games",
      "outputs": [
        {
          "internalType": "string",
          "name": "title",
          "type": "string"
        },
        {
          "internalType": "string",
          "name": "description",
          "type": "string"
        },
        {
          "internalType": "uint256",
          "name": "price",
          "type": "uint256"
        },
        {
          "internalType": "address",
          "name": "owner",
          "type": "address"
        },
        {
          "internalType": "bool",
          "name": "isForSale",
          "type": "bool"
        }
      ],
      "stateMutability": "view",
      "type": "function"
    },
    {
      "inputs": [
        {
          "internalType": "string",
          "name": "_title",
          "type": "string"
        },
        {
          "internalType": "string",
          "name": "_description",
          "type": "string"
        },
        {
          "internalType": "uint256",
          "name": "_price",
          "type": "uint256"
        }
      ],
      "name": "addGame",
      "outputs": [],
      "stateMutability": "nonpayable",
      "type": "function"
    },
    {
      "inputs": [
        {
          "internalType": "uint256",
          "name": "_gameId",
          "type": "uint256"
        }
      ],
      "name": "getGame",
      "outputs": [
        {
          "internalType": "string",
          "name": "title",
          "type": "string"
        },
        {
          "internalType": "string",
          "name": "description",
          "type": "string"
        },
        {
          "internalType": "uint256",
          "name": "price",
          "type": "uint256"
        },
        {
          "internalType": "address",
          "name": "owner",
          "type": "address"
        },
        {
          "internalType": "bool",
          "name": "isForSale",
          "type": "bool"
        }
      ],
      "stateMutability": "view",
      "type": "function"
    },
    {
      "inputs": [
        {
          "internalType": "uint256",
          "name": "_gameId",
          "type": "uint256"
        },
        {
          "internalType": "string",
          "name": "_title",
          "type": "string"
        },
        {
          "internalType": "string",
          "name": "_description",
          "type": "string"
        },
        {
          "internalType": "uint256",
          "name": "_price",
          "type": "uint256"
        }
      ],
      "name": "updateGame",
      "outputs": [],
      "stateMutability": "nonpayable",
      "type": "function"
    },
    {
      "inputs": [
        {
          "internalType": "uint256",
          "name": "_gameId",
          "type": "uint256"
        }
      ],
      "name": "buyGame",
      "outputs": [],
      "stateMutability": "payable",
      "type": "function"
    }
  ],
  "bytecode": "0x608060405234801561001057600080fd5b50610ef7806100206000396000f3fe6080604052600436106100555760003560e01c8063117a5b901461005a5780634d1975b41461009b578063a2f77bcc146100c6578063a5c86b7714610107578063c400af3114610130578063f776051714610159575b600080fd5b34801561006657600080fd5b50610081600480360381019061007c91906109a6565b610175565b604051610092959493929190610bae565b60405180910390f35b3480156100a757600080fd5b506100b06102e8565b6040516100bd9190610c6f565b60405180910390f35b3480156100d257600080fd5b506100ed60048036038101906100e891906109a6565b6102ee565b6040516100fe959493929190610bae565b60405180910390f35b34801561011357600080fd5b5061012e60048036038101906101299190610927565b61047b565b005b34801561013c57600080fd5b50610157600480360381019061015291906109cf565b61059a565b005b610173600480360381019061016e91906109a6565b610684565b005b600060205280600052604060002060009150905080600001805461019890610d91565b80601f01602080910402602001604051908101604052809291908181526020018280546101c490610d91565b80156102115780601f106101e657610100808354040283529160200191610211565b820191906000526020600020905b8154815290600101906020018083116101f457829003601f168201915b50505050509080600101805461022690610d91565b80601f016020809104026020016040519081016040528092919081815260200182805461025290610d91565b801561029f5780601f106102745761010080835404028352916020019161029f565b820191906000526020600020905b81548152906001019060200180831161028257829003601f168201915b5050505050908060020154908060030160009054906101000a900473ffffffffffffffffffffffffffffffffffffffff16908060030160149054906101000a900460ff16905085565b60015481565b6060806000806000806000808881526020019081526020016000209050806000018160010182600201548360030160009054906101000a900473ffffffffffffffffffffffffffffffffffffffff168460030160149054906101000a900460ff1684805461035b90610d91565b80601f016020809104026020016040519081016040528092919081815260200182805461038790610d91565b80156103d45780601f106103a9576101008083540402835291602001916103d4565b820191906000526020600020905b8154815290600101906020018083116103b757829003601f168201915b505050505094508380546103e790610d91565b80601f016020809104026020016040519081016040528092919081815260200182805461041390610d91565b80156104605780601f1061043557610100808354040283529160200191610460565b820191906000526020600020905b81548152906001019060200180831161044357829003601f168201915b50505050509350955095509550955095505091939590929450565b6001600081548092919061048e90610dc3565b91905055506040518060a001604052808481526020018381526020018281526020013373ffffffffffffffffffffffffffffffffffffffff1681526020016001151581525060008060015481526020019081526020016000206000820151816000019080519060200190610503929190610807565b506020820151816001019080519060200190610520929190610807565b506040820151816002015560608201518160030160006101000a81548173ffffffffffffffffffffffffffffffffffffffff021916908373ffffffffffffffffffffffffffffffffffffffff16021790555060808201518160030160146101000a81548160ff021916908315150217905550905050505050565b600080600086815260200190815260200160002090508060030160009054906101000a900473ffffffffffffffffffffffffffffffffffffffff1673ffffffffffffffffffffffffffffffffffffffff163373ffffffffffffffffffffffffffffffffffffffff1614610642576040517f08c379a000000000000000000000000000000000000000000000000000000000815260040161063990610c2f565b60405180910390fd5b8381600001908051906020019061065a929190610807565b5082816001019080519060200190610673929190610807565b508181600201819055505050505050565b6000806000838152602001908152602001600020905080600201543410156106e1576040517f08c379a00000000000000000000000000000000000000000000000000000000081526004016106d890610c0f565b60405180910390fd5b8060030160149054906101000a900460ff16610732576040517f08c379a000000000000000000000000000000000000000000000000000000000815260040161072990610c4f565b60405180910390fd5b60008160030160009054906101000a900473ffffffffffffffffffffffffffffffffffffffff169050338260030160006101000a81548173ffffffffffffffffffffffffffffffffffffffff021916908373ffffffffffffffffffffffffffffffffffffffff16021790555060008260030160146101000a81548160ff0219169083151502179055508073ffffffffffffffffffffffffffffffffffffffff166108fc349081150290604051600060405180830381858888f19350505050158015610801573d6000803e3d6000fd5b50505050565b82805461081390610d91565b90600052602060002090601f016020900481019282610835576000855561087c565b82601f1061084e57805160ff191683800117855561087c565b8280016001018555821561087c579182015b8281111561087b578251825591602001919060010190610860565b5b509050610889919061088d565b5090565b5b808211156108a657600081600090555060010161088e565b5090565b60006108bd6108b884610cbb565b610c8a565b9050828152602081018484840111156108d557600080fd5b6108e0848285610d4f565b509392505050565b600082601f8301126108f957600080fd5b81356109098482602086016108aa565b91505092915050565b60008135905061092181610eaa565b92915050565b60008060006060848603121561093c57600080fd5b600084013567ffffffffffffffff81111561095657600080fd5b610962868287016108e8565b935050602084013567ffffffffffffffff81111561097f57600080fd5b61098b868287016108e8565b925050604061099c86828701610912565b9150509250925092565b6000602082840312156109b857600080fd5b60006109c684828501610912565b91505092915050565b600080600080608085870312156109e557600080fd5b60006109f387828801610912565b945050602085013567ffffffffffffffff811115610a1057600080fd5b610a1c878288016108e8565b935050604085013567ffffffffffffffff811115610a3957600080fd5b610a45878288016108e8565b9250506060610a5687828801610912565b91505092959194509250565b610a6b81610d07565b82525050565b610a7a81610d19565b82525050565b6000610a8b82610ceb565b610a958185610cf6565b9350610aa5818560208601610d5e565b610aae81610e99565b840191505092915050565b6000610ac6601483610cf6565b91507f496e73756666696369656e74207061796d656e740000000000000000000000006000830152602082019050919050565b6000610b06602283610cf6565b91507f4f6e6c7920746865206f776e65722063616e207570646174652074686520676160008301527f6d650000000000000000000000000000000000000000000000000000000000006020830152604082019050919050565b6000610b6c601483610cf6565b91507f47616d65206973206e6f7420666f722073616c650000000000000000000000006000830152602082019050919050565b610ba881610d45565b82525050565b600060a0820190508181036000830152610bc88188610a80565b90508181036020830152610bdc8187610a80565b9050610beb6040830186610b9f565b610bf86060830185610a62565b610c056080830184610a71565b9695505050505050565b60006020820190508181036000830152610c2881610ab9565b9050919050565b60006020820190508181036000830152610c4881610af9565b9050919050565b60006020820190508181036000830152610c6881610b5f565b9050919050565b6000602082019050610c846000830184610b9f565b92915050565b6000604051905081810181811067ffffffffffffffff82111715610cb157610cb0610e6a565b5b8060405250919050565b600067ffffffffffffffff821115610cd657610cd5610e6a565b5b601f19601f8301169050602081019050919050565b600081519050919050565b600082825260208201905092915050565b6000610d1282610d25565b9050919050565b60008115159050919050565b600073ffffffffffffffffffffffffffffffffffffffff82169050919050565b6000819050919050565b82818337600083830152505050565b60005b83811015610d7c578082015181840152602081019050610d61565b83811115610d8b576000848401525b50505050565b60006002820490506001821680610da957607f821691505b60208210811415610dbd57610dbc610e3b565b5b50919050565b6000610dce82610d45565b91507fffffffffffffffffffffffffffffffffffffffffffffffffffffffffffffffff821415610e0157610e00610e0c565b5b600182019050919050565b7f4e487b7100000000000000000000000000000000000000000000000000000000600052601160045260246000fd5b7f4e487b7100000000000000000000000000000000000000000000000000000000600052602260045260246000fd5b7f4e487b7100000000000000000000000000000000000000000000000000000000600052604160045260246000fd5b6000601f19601f8301169050919050565b610eb381610d45565b8114610ebe57600080fd5b5056fea2646970667358221220f096c91a68d4a44859caf1dd2fe0f9da4a99d74bdd78ddf120fda9721fae129d64736f6c63430008000033",
  "immutableReferences": {},
  "source": "pragma solidity ^0.8.0;\r\n\r\ncontract GameStore {\r\n    struct Game {\r\n        string title;\r\n        string description;\r\n        uint price;\r\n        address owner;\r\n        bool isForSale;\r\n    }\r\n\r\n    mapping(uint => Game) public games;\r\n    uint public gameCount;\r\n\r\n    function addGame(string memory _title, string memory _description, uint _price) public {\r\n        gameCount++;\r\n        games[gameCount] = Game(_title, _description, _price, msg.sender, true);\r\n    }\r\n\r\n    function getGame(uint _gameId) public view returns (string memory title, string memory description, uint price, address owner, bool isForSale) {\r\n        Game storage game = games[_gameId];\r\n        return (game.title, game.description, game.price, game.owner, game.isForSale);\r\n    }\r\n\r\n    function updateGame(uint _gameId, string memory _title, string memory _description, uint _price) public {\r\n        Game storage game = games[_gameId];\r\n        require(msg.sender == game.owner, \"Only the owner can update the game\");\r\n        game.title = _title;\r\n        game.description = _description;\r\n        game.price = _price;\r\n    }\r\n\r\n    function buyGame(uint _gameId) public payable {\r\n        Game storage game = games[_gameId];\r\n        require(msg.value >= game.price, \"Insufficient payment\");\r\n        require(game.isForSale, \"Game is not for sale\");\r\n\r\n        address previousOwner = game.owner;\r\n        game.owner = msg.sender;\r\n        game.isForSale = false;\r\n\r\n        payable(previousOwner).transfer(msg.value);\r\n    }\r\n}",
  "sourcePath": "C:\\Work\\flasksmartcontract\\contracts\\BoardGameShop.sol",
  "compiler": {
    "name": "solc",
    "version": "0.8.0+commit.c7dfd78e.Emscripten.clang"
  },
  "schemaVersion": "3.4.16",
  "updatedAt": "2024-06-26T07:18:20.862Z",
  "devdoc": {
    "kind": "dev",
    "methods": {},
    "version": 1
  },
  "userdoc": {
    "kind": "user",
    "methods": {},
    "version": 1
  }
}